:100000000C9434000C9451000C9451000C94510049
:100010000C9451000C9451000C9451000C9451001C
:100020000C9451000C9451000C9451000C94590004
:100030000C9451000C9451000C9451000C945100FC
:100040000C9451000C9451000C9451000C945100EC
:100050000C9451000C9451000C9451000C945100DC
:100060000C9451000C94510011241FBECFEFD8E026
:10007000DEBFCDBF11E0A0E0B1E0ECE2F2E002C0F3
:1000800005900D92A031B107D9F721E0A0E1B1E0D0
:1000900001C01D92A431B207E1F70E94AC000C949C
:1000A00014010C9400005F9A5F9808955E9A8BB1DA
:1000B00008951F920F920FB60F9211242F933F9322
:1000C0004F935F936F937F938F939F93AF93BF9360
:1000D000EF93FF93209112013091130180910E0153
:1000E00090910F012817390714F45D9A01C05D98AB
:1000F0000E9456000E9453008091120190911301BA
:1001000001969093130180931201FF91EF91BF919B
:10011000AF919F918F917F916F915F914F913F919F
:100120002F910F900FBE0F901F9018955A9A8091A3
:100130000C0190910D010496209112013091130150
:100140002817390709F45A988091120190911301E8
:10015000039709F45A9808958AB18C6F8AB98BB1C4
:100160008B718BB98BB188618BB988B1806388B989
:100170008091810088608093810080916F0082600F
:1001800080936F00789489E09DE390938900809339
:100190008800809181008460809381001092110119
:1001A00010921001809110019091110120910E0187
:1001B00030910F01281739078CF3880F991FFC0124
:1001C000E050FF4F808191818032910589F02CF4BD
:1001D000009751F00E9751F01DC08F32910561F0DC
:1001E0008134910559F016C05C98459A5B98449A01
:1001F0000E94960045985C9A44985B9A0E949600EB
:100200005C98459A109213011092120110921101FC
:10021000109210018091100190911101019690931C
:0C022000110180931001BECFF894FFCFB5
:10022C0000000E0020002F004100410020000400BF
:00000001FF
