:100000000C9434000C9446000C9446000C9446006A
:100010000C9446000C9446000C9446000C94460048
:100020000C9446000C9446000C9446000C944B0033
:100030000C9446000C9446000C9446000C94460028
:100040000C9446000C9446000C9446000C94460018
:100050000C9446000C9446000C9446000C94460008
:100060000C9446000C94460011241FBECFEFD8E03C
:10007000DEBFCDBF21E0A0E0B1E001C01D92A830FD
:10008000B207E1F70E94A7000C94FA000C9400005C
:100090005F9A5F9808951F920F920FB60F921124E6
:1000A0002F933F934F935F936F937F938F939F9380
:1000B000AF93BF93EF93FF93809106019091070157
:1000C000892B11F45D9A5E9A809106019091070147
:1000D0001816190614F45D985E9A5E980E944800FE
:1000E00080910601909107010196909307018093FA
:1000F00006015A9880910201909103018130910587
:1001000021F4909301018093000180910601909168
:10011000070181975CF05A9A10920701109206012C
:1001200081E090E09093030180930201FF91EF91B1
:10013000BF91AF919F918F917F916F915F914F91FF
:100140003F912F910F900FBE0F901F9018958AB17D
:100150008C6F8AB98BB18F708BB95B9A809181005B
:1001600088608093810080916F00826080936F002F
:10017000789489E698E19093890080938800809133
:100180008100846080938100809104019091050139
:10019000892BA9F480910001909101018130910592
:1001A00071F45B985C9A909305018093040110921E
:1001B000030110920201109201011092000180913E
:1001C0000401909105010197F9F680910001909149
:1001D00001010197C9F65C985B9A10920501109293
:1001E0000401109203011092020110920101109279
:0801F0000001CACFF894FFCF13
:00000001FF
