:100000000C9434000C9451000C9451000C94510049
:100010000C9451000C9451000C9451000C9451001C
:100020000C9451000C9451000C9451000C94560007
:100030000C9451000C9451000C9451000C945100FC
:100040000C9451000C9451000C9451000C945100EC
:100050000C9451000C9451000C9451000C945100DC
:100060000C9451000C94510011241FBECFEFD8E026
:10007000DEBFCDBF11E0A0E0B1E0ECE1F2E002C0F4
:1000800005900D92A031B107D9F721E0A0E1B1E0D0
:1000900001C01D92A431B207E1F70E949A000C94AE
:1000A0000C010C9400005F9A5F9808951F920F92C4
:1000B0000FB60F9211242F933F934F935F936F933B
:1000C0007F938F939F93AF93BF93EF93FF935D9A2B
:1000D0000E94530080911201909113010196909318
:1000E000130180931201FF91EF91BF91AF919F9106
:1000F0008F917F916F915F914F913F912F910F90D1
:100100000FBE0F901F9018955A9A80910C019091F4
:100110000D0104962091120130911301281739071F
:1001200009F45A988091120190911301039709F4F0
:100130005A9808958AB18C6F8AB987B1806387B95C
:100140008BB18B718BB988B18F7C88B98BB1886189
:100150008BB98091810088608093810080916F00CD
:10016000826080936F00789489E698E1909389008B
:100170008093880080918100846080938100C0E139
:10018000D0E2109211011092100180911001909113
:10019000110120910E0130910F01281739078CF3BE
:1001A000880F991FFC01E050FF4F808191818032C0
:1001B000910569F02CF40E9729F55C9A459807C0D3
:1001C0008F32910569F08134910561F01BC00E9466
:1001D00084005A9A88B18D2788B98BB18C278BB946
:1001E000449A5B980E9484008BB18C278BB988B1AC
:1001F0008D2788B9109213011092120110921101EB
:10020000109210018091100190911101019690932C
:0C021000110180931001B9CFF894FFCFCA
:10021C0000000E0020002F004100410020000400CF
:00000001FF
